:100000000C9460190C9488190C9488190C94881914
:100010000C9488190C9488190C9488190C94331D2D
:100020000C9488190C9488190C9488190C948819CC
:100030000C9488190C9488190C9488190C948819BC
:100040000C94C9270C9488190C9455200C942F20DB
:100050000C9488190C9488190C9488190C9488199C
:100060000C9488190C948819FFE0FFD1AFFF32FF80
:10007000D0FFFEFFE0FFD1AEFFD0FFFEFFE0FFD1DB
:100080001000FFFEFFD0FFE0FFC1FFD1AED580A87A
:100090003FD300408D142000A1C8DA1281CFD9F1DE
:1000A000DB402EA4A6AFFFD0FFFE0200000000231D
:1000B000002600290000221FFEFA11040808D120A2
:1000C000FFFB19FA11FB00000007000003111109E2
:1000D0000300E0E0E0E0E0E0E0E0E0E0E0E000009D
:1000E000E0E0E00807070C020AE7E7E7E7E7E7E7F1
:1000F0000E112210010003180718063806303FFCC5
:100100003FFC0C600C601C6018E0FFF8FFF039C089
:1001100031803180718063800C152A0E01FD020050
:100120000F803FC07FE0F2E0E2E0E200FA007E00F4
:100130003FC00FE003F002F0E270E270F2F07FE007
:100140003FC00F00020002001511331701003E03EB
:10015000007F0700630600C18E00C18C00C19800BB
:10016000C1B8006330807F77E03E663000EC180055
:10017000CC1801CC18018C18030E380707F00603C1
:10018000E01011221201001F803FC079E070E07181
:10019000E039C03F801F003F1E779CF3DCE1FCE0AC
:1001A000FCE078787C7FFE1FCF03070709030AE095
:1001B000E0E0E0E0E0600514140902FD38387070FA
:1001C00070F0E0E0E0E0E0E0E0E0F0707070303827
:1001D0000514140902FDE060707070383838383842
:1001E000383838383870707060E00909120F030829
:1001F0003600360036009C80FF809C80360036003A
:1002000036000E0E1C18050002000200020002005B
:1002100002000200FFFCFFFC0200020002000200DC
:10022000020002000506060701FD3870706060E0FC
:10023000060303080104FCFCFC030303070200E0BF
:10024000E0E00812120A01FF0706060E0C0C0C1C57
:10025000181838303030706060E00B11220D01004A
:100260001F003F8071C070C0E0E0E0E0E0E0E0E04F
:10027000E0E0E0E0E0E0E0E0E0E070C071C03F809E
:100280001F000711110D02000E3EFEFECE0E0E0ED7
:100290000E0E0E0E0E0E0E0E0E0C11220D01000F84
:1002A000803FE078E070700070007000F001E003C3
:1002B000E007C00F801E003C00F800FFF0FFF0FFD9
:1002C000F00B11220D01001F007FC0F1E0E0E00003
:1002D000E000E001C00F800F8001C000E000E0E01E
:1002E000E0F1E0FFC07F801F000C11220D01000330
:1002F000C007C007C00FC01DC01DC039C071C0718C
:10030000C0E1C0FFF0FFF0FFF001C001C001C0017B
:10031000C00B11220D0100FFC0FFC0FFC0E000E0D4
:1003200000E000EF80FFC0F1E0E0E000E000E0E08E
:10033000E0E1E0FFC07F803F000B11220D01000FC4
:10034000003FC039E070E06000E000EF80FFC0F1E6
:10035000E0E0E0E0E0E0E0E0E060E071C03F801F6E
:10036000000B11220D0100FFE0FFE0FFE000E001C3
:10037000E001C003C003800780078007000F000E64
:10038000001E001C003C003C000B11220D01001F50
:10039000007FC0F1E0E0E0E0E0E0E071C03F803FDE
:1003A0008071C0E0E0E0E0E0E0E0E0F1E07FC01F6D
:1003B000000B11220D01001F003F8071C0E0C0E062
:1003C000E0E0E0E0E0F1E07FE03EE000E000E0E0DF
:1003D000E0E1C071C07F801E00030C0C070300E049
:1003E000E0E0000000000000E0E0E0050E0E080183
:1003F000FE38383800000000003838707060E00EB9
:100400000C18180501000C003C01E007003C00E05E
:1004100000E0003C00070001E0003C000C0E060C70
:10042000180504FFFCFFFC00000000FFFCFFFC0EB1
:100430000C18180501C000F0001E00038000F00039
:100440001C001C00F003801E00F000C0000A1122F6
:100450000C01003E007F80E380C1C001C001C003E9
:100460008007800E001C0018001800180000000013
:1004700000180018001616421801FB00FE0003FFCA
:10048000800FFFE01F01F03E00F078F77879FF3829
:1004900071CF3CF3871CE3871CE3871CE3871CE3D5
:1004A000871CE3CF38F1FFF871FBF07871E03C0076
:1004B000001F00000FFF0007FF0000FF00101122C7
:1004C00010000003C003C003E007E007F00F700E48
:1004D000700E781E381C381C3C3FFC3FFC7FFE78B9
:1004E0000E700FF0070C11220F0200FFC0FFE0FF9B
:1004F000F0E0F0E070E070E0E0FFC0FFC0E0E0E0BE
:1005000070E070E070E0F0FFF0FFE0FF800E11227D
:100510001001000FC01FF03FF87878703CF03CE00D
:1005200000E000E000E000E000E000703C703C38DB
:10053000781FF00FC00E1122110200FF00FFE0FF34
:10054000F0E0F8E038E03CE01CE01CE01CE01CE0DF
:100550001CE03CE038E0F8FFF0FFE0FF800B1122E8
:100560000F0200FFE0FFE0FFE0E000E000E000E05D
:1005700000FFE0FFE0E000E000E000E000E000FF5E
:10058000E0FFE0FFE00B11220E0200FFE0FFE0FFC2
:10059000E0E000E000E000E000FFC0FFC0FFC0E0DE
:1005A00000E000E000E000E000E000E0000F1122C9
:1005B00012010007E01FF83FFC7C1E700EF00EE0F9
:1005C00000E000E0FEE0FEE0FEF00E700E7C0E3F6C
:1005D000FE1FFE03F80D1122110200E038E038E0A2
:1005E00038E038E038E038E038FFF8FFF8FFF8E0AE
:1005F00038E038E038E038E038E038E0380311110E
:10060000070200E0E0E0E0E0E0E0E0E0E0E0E0E081
:10061000E0E0E0E00B11220E010000E000E000E06D
:1006200000E000E000E000E000E000E000E000E0CA
:10063000E0E0E0E0F0E0FFC07FC03F000D112210DD
:100640000200E0F0E0E0E1E0E3C0E780EF00EF006F
:10065000FE00FE00EF00E780E780E3C0E1E0E1F0AC
:10066000E0F0E0780B11220E0200E000E000E00074
:10067000E000E000E000E000E000E000E000E0007A
:10068000E000E000E000FFE0FFE0FFE012113316C1
:100690000200FC07C0FC0FC0FC0FC0FC0FC0EE1F27
:1006A000C0EE1DC0EE1DC0E73DC0E739C0E739C050
:1006B000E7B9C0E3F1C0E3F1C0E3F1C0E1F1C0E1AB
:1006C000E1C0E1E1C00E1122120200F81CF81CFC8E
:1006D0001CFC1CEE1CEE1CE71CE71CE79CE39CE3E7
:1006E000DCE1DCE1DCE0FCE0FCE07CE07C0F112202
:1006F00011010007C01FF03FF8783C701CF01EE0AD
:100700000EE00EE00EE00EE00EF00E701C783C3FA6
:10071000F81FF007E00C11220F0200FF80FFC0FF5E
:10072000E0E0F0E070E070E070E0F0FFE0FFC0FFBC
:1007300000E000E000E000E000E000E00011113324
:1007400013010007C0001FF0003FF800783C007064
:100750001C00F01E00E00E00E00E00E00E00E00EB7
:1007600000E00E00F00E00701C00783C003FFF809F
:100770001FFF8007FF800D1122100200FFC0FFF055
:10078000FFF8E078E038E038E070FFE0FFC0FFF00D
:10079000E0F0E070E078E038E038E038E0380D1163
:1007A000220F01000FC03FE038F070707000780039
:1007B0007E003FC01FF003F00078E038E038F078AA
:1007C0007FF03FE00F800D11220F0100FFF8FFF8CE
:1007D000FFF80700070007000700070007000700F1
:1007E00007000700070007000700070007000E11B9
:1007F00022120200E01CE01CE01CE01CE01CE01CDB
:10080000E01CE01CE01CE01CE01CE01CF03C7878E4
:100810007FF83FF00FC0111133110000F007807016
:100820000700780F00780E00381E003C1E001C1CCC
:10083000001E3C001E3C000E38000F78000F7000B8
:1008400007700007F00007E00003E00003E0001776
:100850001133170000F0381E707C1C707C1C787CF3
:100860003C786C3C38EE3838EE3838EE383CC67898
:100870001DC7701DC7701DC7701D83700F83E00FEB
:1008800083E00F83E00F01E00E1122100100F03C25
:10089000783878783C701CE01FE00FC00780078034
:1008A0000FC01FC01DE038F078707078F03CE03C5D
:1008B0000D11220F0100E038F078707078F038E008
:1008C0003DE01DC01FC00F800F800700070007001C
:1008D00007000700070007000C11220E0100FFF0BF
:1008E000FFF0FFF001F001E003C0078007800F0078
:1008F0001E003C003C007800F000FFF0FFF0FFF02D
:100900000516160902FBF8F8E0E0E0E0E0E0E0E0C0
:10091000E0E0E0E0E0E0E0E0E0E0F8F80712120AF2
:1009200001FFC0E06060703030381818181C0C0CE3
:100930000E0606060516160902FBF8F83838383890
:100940003838383838383838383838383838F8F8A7
:100950000B0E1C17060004000E000A001B001100FD
:10096000110031802080208060C04040C060802025
:1009700080200C02040C00FDFFF0FFF004040406CC
:10098000000EE06030300A0C180D01001F007F805F
:1009900071C001C01FC07FC0F1C0E1C0E1C0F3C0A1
:1009A0007FC03CC00C11220E0100E000E000E0001E
:1009B000E000E000EF80FFC0F1E0F0F0E070E070F8
:1009C000E070E070F0F0F8E0FFC0E7800A0C180C6F
:1009D00001001F007F8073C0E1C0E000E000E00084
:1009E000E1C0E1C073C07F801F000C11220E010026
:1009F000007000700070007000701F703FF078F0A1
:100A0000F0F0E070E070E070E070F0F071F03FF056
:100A10001E700B0C180D01001F003F8071C0E1E03B
:100A2000FFE0FFE0E000E000E1C071C07FC01F0018
:100A30000811110901001F3F383838FFFF383838D6
:100A4000383838383838380C11220E01FB1F703F07
:100A5000F078F0F0F0E070E070E070E070F0F070CE
:100A6000F07FF01E700070707078E03FE01F800B28
:100A700011220D0100E000E000E000E000E000EFE6
:100A800080FFC0F1E0F0E0E0E0E0E0E0E0E0E0E0A6
:100A9000E0E0E0E0E0E0E0031111050100E0E0E06B
:100AA0000000E0E0E0E0E0E0E0E0E0E0E0E00416AC
:100AB000160702FB707070000070707070707070BC
:100AC00070707070707070F0F0E00B11220C01000B
:100AD000E000E000E000E000E000E3C0E380E700C9
:100AE000EF00FE00FE00EE00EF00E780E780E3C0CD
:100AF000E1E0031111060100E0E0E0E0E0E0E0E009
:100B0000E0E0E0E0E0E0E0E0E0130C24150100E7C5
:100B10008F80EFDFC0F9F1E0F0E0E0E0E0E0E0E05E
:100B2000E0E0E0E0E0E0E0E0E0E0E0E0E0E0E0E0C5
:100B3000E0E0E00B0C180D0100EF80FFC0F1E0E0F9
:100B4000E0E0E0E0E0E0E0E0E0E0E0E0E0E0E0E0A5
:100B5000E00C0C180E01001F803FC070E0F0E0E0D8
:100B600070E070E070E070F0F070E03FC01F800C4B
:100B700011220E01FBE780FFC0F8E0F0F0E070E02A
:100B800070E070E070F0F0F1E0FFC0EF80E000E0B6
:100B900000E000E000E0000C11220E01FB1E703F9F
:100BA000F071F0F0F0E070E070E070E070F0F0787C
:100BB000F03FF01F70007000700070007000700750
:100BC0000C0C090100EEEEFEF0F0E0E0E0E0E0E009
:100BD000E00A0C180C01003F007F80F1C0E1C0F872
:100BE000007F001F8003C0E1C0E3C07F803F00089A
:100BF0000F0F0A0100183838FFFF383838383838F6
:100C0000383C3F0F0B0C180D0100E0E0E0E0E0E0A5
:100C1000E0E0E0E0E0E0E0E0E0E0E0E0F1E07FE024
:100C20003EE00C0C180D0000F07070F070E078E001
:100C300038E039C01DC01DC01F800F800F800F001D
:100C4000130C24140000F0F0E070F0E071F0E0719B
:100C5000F9C039F9C03BB9C03B9FC03F9F801F1FFF
:100C6000801F0F801F0F000F0F000B0C180D0100CD
:100C7000F1E071C07B803F801F001E001F003F809D
:100C80007B8073C0F1C0E1E00C11220C00FBF0701E
:100C900070F078E038E039E03DC01DC01DC01F8015
:100CA0000F800F80070007000F000E000E001E00CF
:100CB0000A0C180C0100FF80FF80078007000E005F
:100CC0001E003C0038007000E000FFC0FFC00917A4
:100CD0002E0C02FA07800F801C001C001C001C0058
:100CE0001C001C001C003C00F800E000F8003C0068
:100CF0001C001C001C001C001C001C001C000F80A1
:100D000007800219190803FAC0C0C0C0C0C0C0C023
:100D1000C0C0C0C0C0C0C0C0C0C0C0C0C0C0C0C0D3
:100D2000C00817170C02FAE0F0383838383838386D
:100D30001C1F071F1C38383838383838F8E00C03C7
:100D4000060C00053C307FF0E3C0FFFFFFFFFFFF14
:100D5000FFFFFFFFFFFFFFFFFFFFFFFFFFFFFFFFA3
:100D6000FFFFFFFFFFFFFFFFFFFFFF000000070087
:100D7000000311110903FBE0E0E00000E0E0E0E027
:100D8000E0E0E0E0E0E0E0E00A12240D01FD010017
:100D9000010003001F007F8073C0E7C0E400E4008F
:100DA000EC00E9C0E9C07BC07F801F00100030006C
:100DB00020000B11220D01000F801FE038E038E009
:100DC00038003800FF00FF003800380038003800D5
:100DD000380038003800FFE0FFE00B0C180D01046C
:100DE00080205F40718060804040404040404040F3
:100DF00060C031805F4080200D11220F0100E0783B
:100E0000F078707078F038E0FDF8FDF81FC00F80C2
:100E1000FFF8FFF8070007000700070007000700BA
:100E20000116160804FB808080808080808080000E
:100E300000000080808080808080808009152A0BDF
:100E400001FC3F007F00F100E000E00078003E0080
:100E50003F007780E380E380E780FF007E001F0093
:100E60000780038003808780FF007C00080303085D
:100E7000000FE7E7E711113313010003E0000FF85B
:100E8000003C1E0033E60067F300673B00CE39806C
:100E9000CE0180CE0180CE0180CE39804E390067F0
:100EA000F30033E600380E000FF80003E000080BF3
:100EB0000B0A01063C66067EE6C6C67E0000FF0BF6
:100EC00009120E01013CE038E079E071C0F3C07115
:100ED000C079E038E03CE00C050A0E0105FFF000A7
:100EE00010001000100010FF11113313010003E077
:100EF000000FF8003C1E0037F60067FB00661B0081
:100F0000C61980C7F180C7F180C63980C6198046EE
:100F10001900661B00300600380E000FF80003E0D1
:100F20000007020207000FFEFE05050507010C7011
:100F3000888888700E0E1C1805000200020002004E
:100F40000200FFFCFFFC02000200020002000000A1
:100F50000000FFFCFFFC0709090901087CE6060EFA
:100F60001C38E0FEFE0709090901087CCE060E3890
:100F70000E06CE7C05040405010E387060C0FF0B20
:100F800014280E02FD3FE07D80FD80FD80FD80FD88
:100F900080FD807D800D800D800D800D800D800D89
:100FA000800D800D800D800D800D800D800303036A
:100FB000070206E0E0E00605050601FB20380C0C00
:100FC000F804090906010830F0B030303030303014
:100FD000080B0B0A01063C66C3C3C3C3E77E3C0093
:100FE000FF0C09120E0101E38071C079E038E03C8A
:100FF000F038E079E071C0E3801011221201003076
:1010000018F018B0303070306030E030C0318031CE
:101010008E030E031E06360E360C66187F18063039
:10102000061011221201003018F030B0303060305C
:10103000E030C031C03180333E0377060306070C31
:101040000E1C1C1870307F307F1111331301007C8F
:101050000600C60C00060C003818000E38000630DA
:1010600000CE70007C600000C70001C700018F0047
:10107000039B00031B00073300063F800C03001C8A
:1010800003000A11220C01FB0E000E0000000000FC
:101090000E000E000E001C0038007000F000E00092
:1010A000E080E0C073C07F801F0010183010000087
:1010B0000E0007000300038001800000000003C051
:1010C00003C003E007E007F00F700E700E781E38C3
:1010D0001C381C3C3FFC3FFC7FFE780E700FF00775
:1010E0001018301000000070006000E000C00180A7
:1010F0000000000003C003C003E007E007F00F702A
:101100000E700E781E381C381C3C3FFC3FFC7FFEE6
:10111000780E700FF00710183010000001C003C0E7
:1011200003E0066004300000000003C003C003E0D9
:1011300007E007F00F700E700E781E381C381C3C4C
:101140003FFC3FFC7FFE780E700FF00710172E104B
:101150000000001007F007E000000000000003C0DE
:1011600003C003E007E007F00F700E700E781E3822
:101170001C381C3C3FFC3FFC7FFE780E700FF007D4
:1011800010172E1100000E700E700E70000000007F
:10119000000003C003C007E007E007E00F700E7017
:1011A0001E781E381C383C3C3FFC7FFE7FFE700ED4
:1011B000F00FE0070F1932100100038006C0044051
:1011C000044004C0038000000000038007C007C083
:1011D0000FC00EE00EE01EE01C701C703C703878F2
:1011E0003FF87FFC7FFC701CF01EE00E15113317DA
:1011F000010000FFF800FFF801F80001F80003B853
:101200000003B800073800073FF80E3FF80E38001B
:101210001E38001FF8003FF800783800703800F0E2
:101220003FF8E03FF80E162C1001FB0FC01FF03FF7
:10123000F87838703CF01CE000E000E000E000E0EE
:1012400000E000701C703C38781FF00FC0030003F2
:10125000C00060006007C00B18300F020038001893
:10126000001C000C00060000000000FFE0FFE0FF93
:10127000E0E000E000E000E000FFE0FFE0E000E090
:1012800000E000E000E000FFE0FFE0FFE00B1830CE
:101290000F020003800300070006000C000000009E
:1012A00000FFE0FFE0FFE0E000E000E000E000FF22
:1012B000E0FFE0E000E000E000E000E000FFE0FF31
:1012C000E0FFE00B18300F02000E001F001B003B78
:1012D00080318000000000FFE0FFE0FFE0E000E080
:1012E00000E000E000FFE0FFE0E000E000E000E000
:1012F00000E000FFE0FFE0FFE00B172E0F02003BD5
:10130000803B803B80000000000000FFE0FFE0FF2A
:10131000E0E000E000E000E000FFE0FFE0E000E0EF
:1013200000E000E000E000FFE0FFE0FFE00518184B
:10133000070000E0E06030100000383838383838F6
:1013400038383838383838383838380518180501FA
:101350000038307060C00000E0E0E0E0E0E0E0E095
:10136000E0E0E0E0E0E0E0E0E00718180700003827
:10137000386C6CC600003838383838383838383867
:1013800038383838383838081717080000E7E7E7E2
:101390000000003838383838383838383838383875
:1013A000383838380F11221000003FC03FF03FF8A6
:1013B000383C381C381E380E380EFF0EFF0E380E23
:1013C000381E381C383C3FF83FF03FC00E172E1235
:1013D000020000200FC00FC0000000000000F81C39
:1013E000F81CFC1CFC1CEE1CEE1CE71CE71CE79C1C
:1013F000E39CE3DCE1DCE1DCE0FCE0FCE07CE07CC5
:101400000F18301101001C000E000600030001003F
:101410000000000007C01FF03FF8783C701CF01E71
:10142000E00EE00EE00EE00EE00EF00E701C783CD8
:101430003FF81FF007E00F1830110100007000E0C6
:1014400000C0018001000000000007C01FF03FF84D
:10145000783C701CF01EE00EE00EE00EE00EE00E98
:10146000F00E701C783C3FF81FF007E00F183011A9
:101470000100038007C006C00C60082000000000C7
:1014800007C01FF03FF8783C701CF01EE00EE00E25
:10149000E00EE00EE00EF00E701C783C3FF81FF0FE
:1014A00007E00F172E11010007200FE008C0000011
:1014B0000000000007C01FF03FF8783C701CF01ED1
:1014C000E00EE00EE00EE00EE00EE00E701C783C48
:1014D0003FF81FF007E00F172E1101000E700E707D
:1014E0000E7000000000000007C01FF03FF8783CBD
:1014F000701CF01EE00EE00EE00EE00EE00EF00EAE
:10150000701C783C3FF81FF007E00D0C1817050120
:10151000C0186030306018C00D80070007000D80D3
:1015200018C030606030C0181113391100FF00017D
:101530000003F1800FFB001FFE003C1E00381E0060
:10154000783F0070770070E70071C70073870077FD
:1015500007007E07003C0E003C1E003FFC006FF8B9
:1015600000E3E0004000000E18301202001C000CE6
:10157000000E000600030000000000E01CE01CE07C
:101580001CE01CE01CE01CE01CE01CE01CE01CE07B
:101590001CE01CF03C70387FF83FF00FC00E183094
:1015A00012020000E000C001C00180030000000042
:1015B00000E01CE01CE01CE01CE01CE01CE01CE067
:1015C0001CE01CE01CE01CE01CF03C70387FF83F85
:1015D000F00FC00E1830120200078007800FC00CF9
:1015E000C0186000000000E01CE01CE01CE01CE0F3
:1015F0001CE01CE01CE01CE01CE01CE01CE01CF0FB
:101600003C70387FF83FF00FC00E172E1001001C01
:10161000E01CE01CE0000000000000E01CE01CE01A
:101620001CE01CE01CE01CE01CE01CE01CE01CE0DA
:101630001CE01CF03C78787FF83FF00FC00D172EAF
:101640000F010001C001800300020000000000E063
:1016500038F078707078F038E03DE01DC01FC00FA2
:10166000800F80070007000700070007000700073A
:10167000000C11220F0100E000E000E000FF80FFFD
:10168000E0FFE0E0F0E070E070E0F0FFE0FFE0FF9E
:1016900080E000E000E000E0000C11220E01003FBD
:1016A000007F80F1C0E1C0E1C0E380E700EE00EE22
:1016B00000EF80E7C0E1E0E070EE70EE70EFE0E791
:1016C000C00A13260D01007000380018000C000439
:1016D00000000000001F007F8071C001C01FC07F9C
:1016E000C0F1C0E1C0E1C0F3C07FC03CC00A132616
:1016F0000D010003800300060006000C000000003E
:10170000001F007F8071C001C01FC07FC0F1C0E119
:10171000C0E1C0F3C07FC03CC00A13260D01000E1B
:10172000001E001B0033002180000000001F007F0E
:101730008071C001C01FC07FC0F1C0E1C0E1C0F333
:10174000C07FC03CC00A11220D01001F803F000075
:1017500000000000001F007F8071C001C01FC07F1B
:10176000C0F1C0E1C0E1C0F3C07FC03CC00A122498
:101770000D01007380738073800000000000003F43
:10178000007F80F1C001C01FC07FC0F1C0E1C0E197
:10179000C0F3C07FC03CC00A14280D01000E001B1E
:1017A00000110013001F000E00000000001F007F4A
:1017B0008071C001C01FC07FC0F1C0E1C0E1C0F3B3
:1017C000C07FC03CC0120C241401001F1F007FBF4B
:1017D0008071F38000E1C01FFFC07FFFC0F0E00018
:1017E000E0E000E0E1C0F1F3C07F3F803E1F000A6F
:1017F00011220C01FB1F007F8073C0E1C0E000E0FC
:1018000000E000E000E1C073C07F803F0008000EF0
:1018100000030003001E000B13260D0100700038AA
:101820000018000C000400000000001F003F807141
:10183000C0E1E0FFE0FFE0E000E000E1C071C07F58
:10184000C01F000B13260D010003800300070006D4
:10185000000C00000000001F003F8071C0E1E0FFAD
:10186000E0FFE0E000E000E1C071C07FC01F000BBE
:1018700013260D01000E001F001B00318021800087
:101880000000001F003F8071C0E1E0FFE0FFE0E0EA
:1018900000E000E1C071C07FC01F000B12240D01E9
:1018A000007380738073800000000000001F003F01
:1018B0008073C0E1C0FFE0FFE0E000E000E1C07342
:1018C000C07F801F0005121206FF00E07030180074
:1018D0000038383838383838383838383804121240
:1018E0000501007060E0C00000E0E0E0E0E0E0E062
:1018F000E0E0E0E0E007121206FF00387C6CC60072
:10190000003838383838383838383838380812120B
:1019100007FF00E7E7E70000003838383838383884
:1019200038383838380C11220E01001C600FC00FF7
:10193000803B8021C01FE03FE070E0F0F0E070E00D
:1019400070E070E070F0F070E03FC01F800B11227B
:101950000D01001F803F00000000000000EF80FF2D
:10196000C0F1E0E0E0E0E0E0E0E0E0E0E0E0E0E086
:10197000E0E0E0E0E00C13260E010038001C000C53
:101980000006000600000000001F803FC070E0F06D
:10199000E0E070E070E070E070F0F070E03FC01FD9
:1019A000800C13260E010001C00380030006000412
:1019B00000000000001F803FC070E0F0E0E070E039
:1019C00070E070E070F0F070E03FC01F800C1326F4
:1019D0000E01000F000F001F80198030C0000000B2
:1019E000001F803FC070E0F0E0E070E070E070E069
:1019F00070F0F070E03FC01F800C11220E01001F3C
:101A0000C03F800000000000001F803FC070E0F079
:101A1000E0E070E070E070E070F0F070E03FC01F58
:101A2000800C12240E010039C039C039C0000000FA
:101A30000000001F803FC070E0F0E0E070E070E068
:101A400070E070F0F070E03FC01F800E0A141805BF
:101A5000020700070006000000FFFCFFFC00000278
:101A600000070007000C0F1E0E01FE002000301FB3
:101A7000E03FC071E0F1F0E370E670EC70F870F8F0
:101A8000F070E07FC0DF80C0000B13260D010070F6
:101A90000038001C000C00060000000000E0E0E040
:101AA000E0E0E0E0E0E0E0E0E0E0E0E0E0E0E0F125
:101AB000E07FE03EE00B13260D010003800380076A
:101AC0000006000C0000000000E0E0E0E0E0E0E0E4
:101AD000E0E0E0E0E0E0E0E0E0E0E0F1E07FE03EF8
:101AE000E00B13260D01000E001F001B00318020AB
:101AF0008000000000E0E0E0E0E0E0E0E0E0E0E0C6
:101B0000E0E0E0E0E0E0E0F1E07FE03EE00B122426
:101B10000D0100738073807380000000000000E0FE
:101B2000E0E0E0E0E0E0E0E0E0E0E0E0E0E0E0E0B5
:101B3000E0F1E07FE03EE00B172E0D01FB0180039A
:101B4000800300060000000000E0E0E0E0F1E0714A
:101B5000C079C03BC03B803F801F801F001F000F2B
:101B6000000E000E00FE00FC0078000C162C0F0288
:101B7000FBE000E000E000E000E000EF80FFC0F8E4
:101B8000E0F0F0E070E070E070E070F0F0F1E0FFA5
:101B9000C0EF80E000E000E000E000E0000C162C68
:101BA0000E01FB39C039C039C000000000F070F0F0
:101BB000F070F078E079E039C03DC01FC01F801F91
:101BC000800F800F000F000F000E001E001C000091
:101BD0001F1AFEFB0E0374075F20FFFC15FB0EFCB3
:101BE000000000060000030E0E080300E0E0E0E045
:101BF000E0E0E0E0E0E00000E0E00806060A0108BE
:101C0000E767676767670C0E1C0E010006600660D9
:101C10000C603FF03FF018C019801980FFE0FFE032
:101C200033003300630066000A11220C01FE040039
:101C30001F007F807780E5C0E400FC007E001F80ED
:101C400007C005C0E5C0E5C07F803F000400040078
:101C5000120E2A1401003C04007E0C00C31800C3BD
:101C60001000C33000E760007E670018CD80009848
:101C7000C00198C00318C00318C0060F800C0700ED
:101C80000E0E1C1001001F007F8071C071C0738098
:101C90003F001E007E38F730E3B0E1F0E0E07FF077
:101CA0001FBC030606080308E0C0C0C0C0C0041182
:101CB000110802FD30707060E0E0E0E0E0E0E0E09C
:101CC000E0607070300411110802FDC0C0E0E060F7
:101CD0006070707070706060E0E0C0C00807070C52
:101CE0000207663C18FF183C660C0C18140400022E
:101CF000000200020002000200FFF0FFF0020002FA
:101D0000000200020002000405050601FE7070607A
:101D1000E0C0050303070104F8F8F8030303060213
:101D200000E0E0E0060F0F0901FF0C0C0C0C181886
:101D30001830303060606060C00A0E1C0B01001E5D
:101D4000007F006180E1C0E1C0E1C0E1C0E1C0E12D
:101D5000C0E1C0E1C061807F801E00060E0E0B0254
:101D6000001C7CFCDC1C1C1C1C1C1C1C1C1C1C0AE1
:101D70000E1C0B01001F007F8061C0E1C001C0018B
:101D8000C0038007800F001E0038007000FFC0FFF6
:101D9000C00A0E1C0B01003E007F00E3800380039D
:101DA000801F001F00038001C001C0E1C0F3807FDD
:101DB000003E000B0E1C0B010007800F800F801BE4
:101DC000803B80338073806380E380FFE0FFE0032B
:101DD00080038003800A0E1C0B0100FF80FF80E05F
:101DE00000E000E000FF00FF80E18001C001C0E1F1
:101DF000C0E3807F003E000A0E1C0B01001E003F66
:101E00008061806000E000DF00FF80E180E1C0E1F0
:101E1000C0E1C061807F801E000A0E1C0B0100FF24
:101E2000C0FFC001C0038003800780070007000EC9
:101E3000000E001C001C003C0038000A0E1C0B01A8
:101E4000003F007F80E1C0E1C0E1807F003F007380
:101E500080E1C0E1C0E1C0E1C07F803F000A0E1C0C
:101E60000B01001E007F00E180E180E1C0E1C0F3D2
:101E7000C07FC019C00180E18063807F003E000305
:101E80000A0A070300E0E0E000000000E0E0E004F0
:101E90000C0C0601FE707070000000007060E0C065
:101EA000C00C0A14140401001000E003801C00E0C0
:101EB00000C0003800070001C000300C050A1404FF
:101EC00003FFF0FFF00000FFF0FFF00C0A14140411
:101ED00001800070001C0003800070003001C00E03
:101EE000003800C000090E1C0B01003E007F00C33B
:101EF0008043800380070006000C001800180018BB
:101F0000000000180018001312361501FC01F8003B
:101F10000FFE001E07803803C071FDC073FCE0E7B0
:101F20001CE0E71CE0E71CE0E71CE0E71CE0E73C06
:101F3000C073FFC071E7803800001E04000FFC0072
:101F400003FC000E0E1C0E00000780078007C00F68
:101F5000C00EC01CE01CE01C6038703FF03FF87001
:101F6000387038E01C0B0E1C0D0100FF00FF80E1F3
:101F7000C0E1C0E1C0E380FF00FF80E0C0E0E0E03E
:101F8000E0E0E0FFC0FF000D0E1C0F01000F803FDE
:101F9000E070706070E000E000E000E000E000E071
:101FA00078607070F03FE00F800C0E1C0E0100FF97
:101FB00000FFC0E1E0E0E0E070E070E070E070E0C1
:101FC00070E070E0E0E1E0FFC0FF000A0E1C0C01D1
:101FD00000FFC0FFC0E000E000E000E000FF80FF85
:101FE00080E000E000E000E000FFC0FFC0090E1C40
:101FF0000B0100FF80FF80E000E000E000E000FF58
:1020000080FF80E000E000E000E000E000E0000D84
:102010000E1C0F01000FC01FF038387038E000E0D0
:1020200000E1F8E1F8E038E038703878383FF80F30
:10203000F00C0E1C0E0100E070E070E070E070E04B
:1020400070E070FFF0FFF0E070E070E070E070E0D2
:1020500070E070030E0E050100E0E0E0E0E0E0E07B
:10206000E0E0E0E0E0E0E00A0E1C0C010001C0014D
:10207000C001C001C001C001C001C001C001C0E178
:10208000C0E1C0F3C07F803E000B0E1C0D0100E1DB
:10209000E0E3C0E380E700EE00FC00FC00FE00EEA1
:1020A00000E700E780E3C0E1C0E0E00A0E1C0B019E
:1020B00000E000E000E000E000E000E000E000E020
:1020C00000E000E000E000E000FFC0FFC0100E1CD8
:1020D000120100F81FF81FFC3FFC3FFC37EC77EEC5
:1020E00077EE67E6E7E7E7E7C7E3C7E3C7E3870D10
:1020F0000E1C0F0100F038F838F838FC38EE38EED6
:1021000038E738E738E3B8E3B8E1F8E1F8E0F8E0B9
:10211000F80E0E1C1001000FC03FF070706038E028
:1021200018E01CE01CE01CE01CE018603870703FF8
:10213000F00FC00B0E1C0D0100FF00FFC0E1C0E05E
:10214000E0E0E0E0E0E1C0FFC0FF00E000E000E030
:1021500000E000E0000F0E1C1101000FC03FE07016
:10216000706038E018E01CE01CE01CE01CE0186027
:102170003870783FFE0FFE0B0E1C0D0100FF80FF34
:10218000C0E0E0E0E0E0E0E0E0FF80FFC0E1C0E0D0
:10219000E0E0E0E0E0E0E0E0600C0E1C0E01001F7B
:1021A000803FC060E0E0E0E000FC007F801FE003D3
:1021B000E00070E070E0607FC01F800C0E1C0E011C
:1021C00000FFF0FFF00E000E000E000E000E000EDD
:1021D000000E000E000E000E000E000E000C0E1C75
:1021E0000E0100E070E070E070E070E070E070E020
:1021F00070E070E070E070E07070E03FC01F800E33
:102200000E1C0F0000F01C701C703C383838383839
:10221000701C701C701EE00EE00FC007C007C007E6
:1022200080140E2A140000F0F0F070F0E070F0E07E
:1022300071F8E071F8E03999C03999C03B9DC03B15
:102240009DC01B0D801F0F801F0F801F0F800E076A
:10225000000C0E1C0E0100E07070E078E039C01F29
:10226000801F000F000F001F803BC039C070E0E0EE
:10227000F0E0700C0E1C0D0000F07070F038E038CB
:10228000E01DC01DC00F800F0007000700070007FA
:1022900000070007000B0E1C0D01007FE07FE0012E
:1022A000E003C0038007800F001E001E003C007882
:1022B00000F800FFE0FFE00512120802FCF8F8E069
:1022C000E0E0E0E0E0E0E0E0E0E0E0E0E0F8F806B8
:1022D0000F0F0901FFC0C060606030303010181867
:1022E000180C0C0C0512120802FCF8F838383838B3
:1022F00038383838383838383838F8F80A0C18147C
:1023000005000C000C000C0012001200330021002C
:10231000210040804080C0C080400A02040A00FDC5
:10232000FFC0FFC005040405FF0CE0703018090A67
:10233000140B01003E007F80E3801F807F80E380DC
:10234000E380E380FF8039800A0E1C0C0100E0006E
:10235000E000E000E000EF00FF80E1C0E1C0E1C08C
:10236000E1C0E1C0E180FF80EF00090A140B010029
:102370003E007F00E380E380E000E000E380E38054
:102380007F003E000A0E1C0C010001C001C001C00C
:1023900001C03DC07FC0E1C0E1C0E1C0E1C0E1C01B
:1023A000E1C07FC03DC0090A140B01001E007F0080
:1023B000E380E380FF80FF80E000E3807F803E00D9
:1023C000070E0E0801001E3E3838FEFE3838383839
:1023D000383838380A0E1C0C01FC3DC07FC071C073
:1023E000E1C0E1C0E1C0E1C0E1C07FC03DC001C0CB
:1023F00061C07F803F00090E1C0B0100E000E0007F
:10240000E000E000EF00FF80E380E380E380E38012
:10241000E380E380E380E380030E0E050100E0E04B
:10242000E000E0E0E0E0E0E0E0E0E0E004121207DD
:1024300002FC7070700070707070707070707070EE
:102440007070F0E0090E1C0B0100E000E000E000FD
:10245000E000E780E700EE00FC00FC00FC00EE007E
:10246000E700E700E380030E0E050100E0E0E0E096
:10247000E0E0E0E0E0E0E0E0E0E00F0A141201005C
:10248000EF3CFFFEE3CEE386E386E386E386E38666
:10249000E386E386090A140B0100EF00FF80E38066
:1024A000E380E380E380E380E380E380E3800A0A63
:1024B000140C01001E007F806180E1C0E1C0E1C01A
:1024C000E1C061807F801E000A0E1C0C01FCEF0041
:1024D000FF80E180E1C0E1C0E1C0E1C0E1C0FF8078
:1024E000EF00E000E000E000E0000A0E1C0C01FC40
:1024F0003DC07FC0E1C0E1C0E1C0E1C0E1C0E1C0DA
:102500007FC03DC001C001C001C001C0060A0A0869
:102510000100ECFCF0E0E0E0E0E0E0E0090A140B90
:1025200001003E00FF00E380E0007E001F0003800A
:10253000E380FF003E00070D0D090100083838FE5A
:10254000FE3838383838383E1E090A140B0100E3CB
:1025500080E380E380E380E380E380E380E380FF47
:10256000807B800B0A140B0000E0E071C071C03169
:10257000803B803B801B001F001F000E00110A1EC5
:10258000110000E1C38061E30073E700736700336B
:1025900077003F76003F3E003E3E001E3C001E1C82
:1025A00000090A140B0100E380730077003E001C51
:1025B000003E003E007700E380E3800B0E1C0B0022
:1025C000FCE0E071C071C039803B803B801F001F80
:1025D000000F000E000E000E001C001C00080A0A6E
:1025E0000A0100FFFF070E1C3870E0FFFF071313FE
:1025F0000A02FB0E3E383838383830F0C0F07038F8
:10260000383838383E0E0115150703FB808080806E
:1026100080808080808080808080808080808080BA
:10262000800713130A02FBE0F03838383838381CBA
:10263000061C383838383838F0E00B03060B000435
:1026400030607FC0C780FFFFFFFFFFFFFFFFFFFF7E
:10265000FFFFFFFFFFFFFFFFFFFFFFFFFFFFFFFF8A
:10266000FFFFFFFFFFFFFF000000060000030E0E4C
:102670000903FCE0E00000E0E0E0E0E0E0E0E0E0B2
:10268000E0090E1C0B01FE020002003E007F00E785
:1026900080E780E800E800EB80F3807F003E0020C8
:1026A0000020000A0E1C0C01001F003FC071C0700A
:1026B000007000FE00FE007000700070007000707E
:1026C00000FFC0FFC00A0A140C010380405E802195
:1026D00000408040804080408021005E8080400B30
:1026E0000E1C0D0100E0E0E1C071C07180FBE0FB59
:1026F000E01F00FFE0FFE00E000E000E000E000ED7
:10270000000112120703FC8080808080808080009E
:102710000080808080808080800812120A01FC3E48
:102720007EE0E0703C7EE7E7E7FE7C1E070787FE61
:102730003807020207000CEEEE0F0E1C1101000715
:10274000C01FF037986FCCCCE49C029C029CE28CBA
:10275000E2CFC6478420181C700FC0070909080182
:102760000578CC7CCCCCFC2400FE0A08100C0101BE
:1027700039C071807380E700E7007380718039C0D1
:102780000B050A0D0104FFE0FFE0002000200020FF
:10279000FF0F0E1C11010007C01FF03F986FECCC1B
:1027A000648C628FC28FC28C62CC664C6420181C11
:1027B000700FC006020206000CFCFC0505050701AF
:1027C0000970888888700C0C18140400020002003C
:1027D0000200FFF0FFF00200020002000000000013
:1027E000FFF0FFF006080808010678CC0C1830E06E
:1027F000FCFC06070708010778CC0C300CCC7804E9
:10280000040404010C306060C0FF0911220B01FDBB
:102810003F807900F900F900F900F900790009001A
:102820000900090009000900090009000900090060
:102830000900030303060205E0E0E00505050501C4
:10284000FB40701818F004080806010630F030301C
:10285000303030300709090901053844C6C6C6447E
:102860003800FE0A08100C0101E70063807380390C
:10287000C039C073806380E7000E0E1C1001007029
:1028800030F030306030C030C03180319C333C0695
:102890003C066C0CCC18FC180C300C0F0E1C1101F3
:1028A000007030F020306030C030C03180333C33B5
:1028B0006606060C0E0C1C1830307E307E0E0E1C88
:1028C0001001007818CC300C3030600CC0CCC079CE
:1028D0009C01BC033C066C06CC0CFC080C180C09D3
:1028E0000E1C0B01FC0E000E0000000E000E000E70
:1028F000003C007000E000E000E180E1807F803E6D
:10290000000E14280E00000C000E0006000300004C
:102910000000000780078007C00FC00EC01CE01C2D
:10292000E01C6038703FF03FF870387038E01C0EE3
:1029300014280E000000C001C00180030000000048
:10294000000780078007C00FC00EC01CE01CE01C01
:102950006038703FF03FF870387038E01C0E142873
:102960000E00000380078006C00CC00000000007B6
:1029700080078007C00FC00EC01CE01CE01C603840
:10298000703FF03FF870387038E01C0E13260E00D0
:102990000006400FC0088000000000078007800785
:1029A000C00FC00EC01CE01CE01C6038703FF03F40
:1029B000F870387038E01C0E13260F00000EE00E81
:1029C000E00000000000000380078007C007C00E81
:1029D000C00EE01CE01C701C703FF83FF8703870AF
:1029E0001CE01C0D152A0F01000700088008800854
:1029F0008007000000000007000F800F801DC01D31
:102A0000C01DC038E038E030607FF07FF0E038E093
:102A100038E038130E2A14000000FFE001FFE00345
:102A2000F0000370000770000770000E7FC00E7F7B
:102A3000C01C70001FF0003FF000707000707FE05D
:102A4000E07FE00D12240F01FC0F803FE070F0608A
:102A500070E000E000E000E000E000E0786070700E
:102A6000F03FE01F800400078001800F000A142857
:102A70000C01003000380018000C0000000000FFBE
:102A8000C0FFC0E000E000E000E000FF80FF80E069
:102A900000E000E000E000FFC0FFC00A14280C01C5
:102AA00000070006000C00080000000000FFC0FF47
:102AB000C0E000E000E000E000FF80FF80E000E018
:102AC00000E000E000FFC0FFC00A14280C01001C59
:102AD000001E003600230000000000FFC0FFC0E021
:102AE00000E000E000E000FF80FF80E000E000E0A8
:102AF00000E000FFC0FFC00A13260C01007700773A
:102B000000000000000000FFC0FFC0E000E000E0A7
:102B100000E000FF80FF80E000E000E000E000FF58
:102B2000C0FFC005141405FF00E06030100000383D
:102B30003838383838383838383838383804141491
:102B4000050100307060C00000E0E0E0E0E0E0E09F
:102B5000E0E0E0E0E0E0E00514140500007070D86B
:102B6000880000707070707070707070707070702D
:102B700070071313070000EEEE00000038383838F5
:102B8000383838383838383838380D0E1C0E0000D0
:102B90007F807FE070F0707070387038FE38FE38DB
:102BA00070387038707070F07FE07F800D13260FE2
:102BB00001000C401F80110000000000F038F838C0
:102BC000F838FC38EE38EE38E738E738E3B8E3B8E1
:102BD000E1F8E1F8E0F8E0F80E14281001001C001C
:102BE0000C0006000200000000000FC03FF07070F3
:102BF0006038E018E01CE01CE01CE01CE0186038C5
:102C000070703FF00FC00E142810010000E001C0EA
:102C100001800300000000000FC03FF070706038BA
:102C2000E018E01CE01CE01CE01CE018603870704C
:102C30003FF00FC00E1428100100070007800DC0E0
:102C400008C0000000000FC03FF070706038E0184E
:102C5000E01CE01CE01CE01CE018603870703FF0E5
:102C60000FC00E132610010007C00FC000000000A7
:102C700000000FC03FF070306038E018E01CE01C2E
:102C8000E01CE01CE018703878F03FF00FC00E1325
:102C9000261001001DC01DC00000000000000FC074
:102CA0003FF070706038E018E01CE01CE01CE01C95
:102CB000E018603870703FF00FC00A0A1414050164
:102CC0008040C0C0618033000C000C001200210065
:102CD000408080400F10201000FF000207E61FFC1C
:102CE000383C303C706C70EE71CE738E770E7E0C7B
:102CF0007C1C38383FF0EFE040000C14280E010037
:102D0000380018000C00060000000000E070E070C1
:102D1000E070E070E070E070E070E070E070E07033
:102D2000E07071E03FC01F800C14280E010001C04C
:102D300003800300060000000000E070E070E07017
:102D4000E070E070E070E070E070E070E070E07003
:102D500071E03FC01F800C14280E01000E000F0010
:102D60001B00118000000000E070E070E070E07077
:102D7000E070E070E070E070E070E070E07071E0D2
:102D80003FC01F800C13260E01001DC01DC0000097
:102D900000000000E070E070E070E070E070E07053
:102DA000E070E070E070E070E07070E03FC01F80A5
:102DB0000C13260D0000018003000200000000003B
:102DC000F07070F038E038E01DC01DC00F800F00BB
:102DD0000700070007000700070007000B0E1C0D87
:102DE0000100E000E000FF00FFC0E1C0E0E0E0E043
:102DF000E0E0E1C0FF80FE00E000E000E0000A0E3D
:102E00001C0C01003E007F80E380E380E300E700CC
:102E1000EE00EE00E780E3C0E1C0FDC0FFC0EF8040
:102E20000910200B0100700030001800080000009D
:102E300000003E007F80E3801F807F80E380E3808E
:102E4000E380FF8039800910200B01000700060095
:102E50000C000C00000000003E007F80E380038037
:102E60003F80FB80E380E380FF8079800910200BA6
:102E700001001C001E0036002300000000003E0080
:102E80007F80E3801F807F80E380E380E380FF809A
:102E90003980090E1C0B01003F003E0000000000BD
:102EA0003E007F80E3801F807F80E380E380E380BB
:102EB000FF803980090F1E0B0100770077000000AA
:102EC000000000003E007F80E3801F807F80E38061
:102ED000E380E380FF8039800911220B01001C0090
:102EE0002200220022001C00000000003E007F8023
:102EF000E3801F807F80E380E380E380FF80398070
:102F0000100A141201003E7C7FFEE3871FFF7FFF43
:102F1000E380E380E3C7FEFE3C7C090E1C0B01FC52
:102F20003E007F00E380E380E000E000E380E38098
:102F30007F003E0010001E0006003E000910200B1E
:102F400001007000300018000800000000001E00A2
:102F50007F00E380E380FF80FF80E000E3807F80EC
:102F60003E000910200B0100070006000C000800BD
:102F7000000000001E007F00E380E380FF80FF80F0
:102F8000E000E3807F803E000910200B01001C0060
:102F90001E0036002300000000001E007F00E380BA
:102FA000E380FF80FF80E000E3807F803E00090F28
:102FB0001E0B0100770077000000000000001E00DB
:102FC0007F00E380E380FF80FF80E000E3807F807C
:102FD0003E00040F0F050000C0E06030007070700C
:102FE00070707070707070040F0F0401007060C01A
:102FF0008000E0E0E0E0E0E0E0E0E0E0070F0F0567
:10300000FF00387C4CC60038383838383838383803
:1030100038070E0E060000EEEE000038383838385B
:1030200038383838380A0E1C0C010039800F001F60
:103030000063001F807F8061C0E1C0E1C0E1C0E1AA
:10304000C061C07F801F00090E1C0B01003E003CC8
:103050000000000000EF00FF80E380E380E380E3F6
:1030600080E380E380E380E3800A10200C010030DD
:1030700000180018000C00000000001E007F806196
:1030800080E1C0E1C0E1C0E1C061807F801E000A34
:1030900010200C01000300060006000C00000000D8
:1030A000001E007F806180E1C0E1C0E1C0E1C0613D
:1030B000807F801E000A10200C01000C001E001AE8
:1030C000003300000000001E007F806180E1C0E14D
:1030D000C0E1C0E1C061807F801E000A0E1C0C01AF
:1030E000001F003E00000000001E007F806180E1A4
:1030F000C0E1C0E1C0E1C061807F801E000A0F1EF8
:103100000C01003B803B800000000000001E007F9F
:10311000806180E1C0E1C0E1C0E1C061807F801ECC
:10312000000C081014040206000E000000FFF0FF5F
:10313000F0000006000E000A0C180C010000C01F71
:10314000807F806380E7C0EDC0E9C0F1C071807FFF
:1031500080DE0080000910200B0100700030001894
:1031600000080000000000E380E380E380E380E3E8
:1031700080E380E380E380FF807B800910200B01E7
:1031800000070006000C00080000000000E380E3D8
:1031900080E380E380E380E380E380E380FF807B63
:1031A000800910200B01001C001C003600220000CA
:1031B000000000E380E380E380E380E380E380E3DA
:1031C00080E380FF807B80090F1E0B010077007772
:1031D00000000000000000E380E380E380E380E380
:1031E00080E380E380E380FF807B800B13260B006D
:1031F000FC0180030002000400000070E071C07157
:10320000C039C03B801B801F801F000F000E000EC6
:10321000004E00FC0078000A12240C01FCE000E0E3
:1032200000E000E000EF00FF80E180E1C0E1C0E1EC
:10323000C0E1C0E1C0FF80FF00E000E000E000E08E
:10324000000B12240B00FC3B803B8000000000E1DF
:10325000E071C071C073803B803B801F001F001F66
:10326000000E000E000C001C001C000000000024DA
:103270000027002A0000000000250028002B000481
:10328000040404040404040202020202020303030D
:103290000303030102040810204080010204081007
:1032A00020010204081020000000080002010000B4
:1032B00003040700000000000000000021306B2A1A
:1032C00011241FBECFEFD8E0DEBFCDBF24E0A0E6C3
:1032D000B1E001C01D92A037B207E1F711E0A0E014
:1032E000B1E0E0EDFBE602C005900D92A036B1071B
:1032F000D9F719E1CFE5D9E104C02197FE010E9479
:10330000DE33CE35D107C9F70E94712A0C94DB3524
:103310000C9400000895CF92DF92EF92FF920F93EA
:103320001F93CF93DF936C017A018B01C0E0D0E053
:10333000CE15DF0581F0D8016D918D01D601ED919B
:10334000FC910190F081E02DC6010995892B11F0C7
:103350002196EECF7E01C701DF91CF911F910F9192
:10336000FF90EF90DF90CF900895FC01538D448D36
:10337000252F30E0842F90E0821B930B541710F020
:10338000CF96089501970895FC01918D828D98172D
:1033900061F0828DDF01A80FB11D5D968C91928D39
:1033A0009F5F9F73928F90E008958FEF9FEF089536
:1033B000FC01918D828D981731F0828DE80FF11DFF
:1033C000858D90E008958FEF9FEF0895FC01918D1A
:1033D000228D892F90E0805C9F4F821B91098F7313
:1033E0009927089581EE92E00E94E61921E0892B49
:1033F00009F420E0822F0895FC01848DDF01A80FDD
:10340000B11DA35ABF4F2C91848D90E001968F730C
:103410009927848FA689B7892C93A089B1898C912B
:10342000837080648C93938D848D981306C002887A
:10343000F389E02D80818F7D80830895EF92FF9244
:103440000F931F93CF93DF93EC0181E0888F9B8DC7
:103450008C8D981305C0E889F989808185FD26C087
:10346000F62E0B8D10E00F5F1F4F0F731127E02E0C
:103470008C8DE8120CC00FB607FCFACFE889F989E9
:10348000808185FFF5CFCE010E94FC19F1CF8B8D95
:10349000FE01E80FF11DE35AFF4FF0829FB7F89449
:1034A0000B8FEA89FB89808180620AC09FB7F894FC
:1034B000EE89FF896083E889F9898081837080645F
:1034C00080839FBF81E090E0DF91CF911F910F91AA
:1034D000FF90EF900895CF93DF93EC01888D8823C0
:1034E000C9F0EA89FB89808185FD05C0A889B98971
:1034F0008C9186FD0FC00FB607FCF5CF808185FF4C
:10350000F2CFA889B9898C9185FFEDCFCE010E94B9
:10351000FC19E7CFDF91CF91089580E090E0892BEF
:1035200029F00E94F21981110C9400000895089569
:103530006150FC01808D681710F06FEF680F862FC7
:1035400008956F5FFC01808D681708F060E0862F9A
:103550000895DC011696ED91FC91179712968C91C7
:10356000481B477081E090E001C0880F4A95EAF758
:10357000E60FF11D3081222311F0832B02C08095CC
:10358000832380830895FB014181DC0112962C91F5
:103590001297421768F013962C911397241740F056
:1035A000608115962C91621718F424810C94A91A45
:1035B0000895FC0130819281930F928321819217AB
:1035C00060F494819F5F94838381830F821710F04E
:1035D0008FEF820F838381E0089580E00895FC01DE
:1035E00012828081815083831482089580E008953F
:1035F0000B96FC01849108950A96FC01849108952C
:10360000FC01849108950E94001B882321F08230E0
:1036100011F083E0089586E00895FC01E60FF11DA6
:10362000849190E0982F88273196E4918E0F911D18
:10363000089568E00C940D1B66E00C940D1B2EE9B8
:103640003FE0009729F0F9013197F1F70197F9CFA1
:103650000895109261010895809399021092B90023
:1036600084FF02C08CE001C088E48093B8000C9411
:10367000291BDB011496ED91FC91159720E030E0B9
:1036800065E00994CF92DF92EF92FF920F931F9320
:10369000CF93DF938C017B016A0180E0F601C49136
:1036A00081110BC0CF3F09F457C04C2FB701C8019F
:1036B0000E94391B81114EC054C0CF3F11F44FEF0F
:1036C000F5CFCE3F09F44FC0C03F08F043C0C03E25
:1036D00058F04C2F4F70D7011496ED91FC9115972F
:1036E00020E030E062E00CC0C03D68F04C2F4F702D
:1036F000D7011496ED91FC91159720E030E063E03E
:10370000C801099527C0C03CF8F0D7011496ED9187
:10371000FC91159720E030E040E064E0C801099595
:10372000C295C07FCE5FD0E0CE010E941F1BD701A3
:103730001496ED91FC91159720E030E041E064E0B3
:10374000C8010995CE0104C0C7FD04C08C2F90E0CC
:103750000E941F1B80E001C081E0BFEFCB1ADB0A93
:103760009DCF80E001C081E0DF91CF911F910F914B
:10377000FF90EF90DF90CF900895AF92BF92CF92DD
:10378000DF92FF920F931F93CF93DF936C018B0116
:10379000F42EE90120E1421709F456C02417A0F0E5
:1037A0003AE043135BC0DB011496ED91FC91159751
:1037B00020E030E042E061E0099544E850E0B801E3
:1037C000C6010E94421B4AC081E1481709F43FC06C
:1037D000A5E14A1343C0FB01A280B3804CE750E04F
:1037E000C6010E94421BD50114964C91406BB80152
:1037F000C6010E94391BD8011496ED91FC911597D2
:1038000020E030E041E062E0C6010995F501268143
:103810003781D8011496ED91FC911597D501159635
:103820004C9166E0C6010995811102C080E0C7C0D5
:10383000D8011496ED91FC91159720E030E040E01E
:1038400063E0C60109950AC043E750E002C048E6BC
:1038500050E0B801C6010E94421BB0C0F8010281CD
:103860001381F2E3FF1609F470C0FF15B8F025E1EB
:10387000F21609F477C037E1F31609F489C084E140
:10388000F8129CC0D8011696ED91FC9117971596E9
:103890008C919F01280F311DC9015CC0A6E4FA1666
:1038A00009F485C0B7E4FB1609F484C0EBE3FE120B
:1038B00085C089819B81913029F0933031F4482F64
:1038C000885004C048E0480F01C0482F51E0D8019B
:1038D00013962C91281708F450E031E0F80122816A
:1038E000421708F430E021E0481708F020E0822F6A
:1038F000852B382319F4252309F460C0CA80913040
:1039000061F038F0923061F0933071F4FF24FA9452
:103910000CC0F12CDD24D39409C0FF24F39405C01E
:10392000F12CDD24DA9402C0F12CD12CC7FE04C0A6
:10393000BE01C8010E94C31A88818D0D88838981C8
:103940008F0D8983CC0C91F739C0BE01C8010E944C
:10395000C31A34C011928E179F07E1F7C8010E9465
:10396000EF1A2CC0C8010E94D91A882309F45ECF2F
:10397000D8011696ED91FC91179715968C919F01A1
:10398000280F311DC90111928E179F07E1F716C04C
:103990001882D80112968C911297898315968C9172
:1039A000159781508A8313968C918B8307C0F801F9
:1039B000858103C0D80111968C91888381E0DF91C5
:1039C000CF911F910F91FF90DF90CF90BF90AF905C
:1039D00008958EBD00000DB407FEFDCF8EB508958D
:1039E00080E090E00895EF92FF920F931F93CF93A2
:1039F000DF93EC017B018A0188819981009729F08E
:103A00002A813B8124173507F8F4B8016F5F7F4F97
:103A10000E940535009759F0998388831B830A8398
:103A20002C813D81232B81F4FC0110820DC0888103
:103A30009981009711F00E947C34198218821D82AE
:103A40001C821B821A8207C01D830C83B7018881E8
:103A500099810E94D435CE01DF91CF911F910F91B2
:103A6000FF90EF9008951F920F920FB60F921124BE
:103A70002F933F934F935F936F937F938F939F9376
:103A8000AF93BF93EF93FF9380916F01909170017B
:103A9000A0917101B0917201892B8A2B8B2B59F166
:103AA00090916E01E0916C01F0916D018081892708
:103AB000808380916F0190917001A0917101B0910C
:103AC0007201181619061A061B060CF03DC08091EB
:103AD0006F0190917001A0917101B09172010197F5
:103AE000A109B10980936F0190937001A0937101B6
:103AF000B093720129C080910001EAEAF0E0E491FC
:103B00009FEF90930001E130B9F098F0E230C9F4F2
:103B1000909170009D7F9093700091E09093B00021
:103B20009091B100987F94609093B1001092B3008F
:103B300008C010926E0005C090916F009D7F909319
:103B40006F0060E00E940D27FF91EF91BF91AF9150
:103B50009F918F917F916F915F914F913F912F91A5
:103B60000F900FBE0F901F9018954F925F926F921B
:103B70007F928F929F92AF92BF92CF92DF92EF92FD
:103B8000FF920F931F93CF93DF9300D000D01F922B
:103B9000CDB7DEB78B0129013A0190910001891759
:103BA00021F09F3F09F045C205C0EAEAF0E0249108
:103BB0002D837CC080930001EAEAF0E094919D831C
:103BC0009F3F09F436C2913009F449C058F1923050
:103BD00009F06CC01092B0001092B1009091B0004A
:103BE00092609093B0009091B10091609093B10079
:103BF000282F30E0F901E158FD4CE491F0E0EE0FA0
:103C0000FF1FEB58FD4C4591549150936D0140932B
:103C10006C01F901ED56FD4CE491E0936E0192E0E8
:103C20009D8303C214BC15BC94B5926094BD95B538
:103C3000916095BD282F30E0F901E158FD4CE491E9
:103C4000F0E0EE0FFF1FEB58FD4C45915491F90148
:103C5000ED56FD4CE491E09363011D82E6C11092A4
:103C60008000109281009091810098609093810073
:103C700090918100916090938100282F30E0F901AC
:103C8000E158FD4CE491F0E0EE0FFF1FEB58FD4CC6
:103C900045915491F901ED56FD4CE491E093620198
:103CA00061E00E943C2721E02D8389C02D8127FD02
:103CB000C0C161E00E943C278D818D7F09F07FC0EB
:103CC0004801A12CB12C60E072E18AE790E0A501E7
:103CD00094010E94AB3329833A834B835C8369014F
:103CE0007A0181E0C81AD108E108F1089FEFC916EE
:103CF000D104E104F10409F008F44EC060E472E478
:103D00008FE090E0A50194010E94AB3369017A0134
:103D100081E0C81AD108E108F1089D81923009F5C7
:103D20002FEFC216D104E104F10409F008F444C1F4
:103D300060E970ED83E090E0A50194010E94AB334F
:103D400069017A0181E0C81AD108E108F1089FEF02
:103D5000C916D104E104F10411F008F0BAC083E0FF
:103D600027C02FEFC216D104E104F104B9F0B0F07E
:103D700068E478EE81E090E0A50194010E94AB3305
:103D800069017A0181E0C81AD108E108F1089D8132
:103D9000992309F413C1DCC081E001C082E09D8158
:103DA000911106C095B5987F892B85BD44C085E0EB
:103DB0009091B100987F892B8093B1003CC048015D
:103DC000A12CB12C60E072E18AE790E0A50194019A
:103DD0000E94AB3369017A0181E0C81AD108E10879
:103DE000F108C114D10491E0E906F10488F068E417
:103DF00078EE81E090E0A50194010E94AB33690167
:103E00007A0181E0C81AD108E108F10883E001C015
:103E100081E09D81913079F490918100987F892B88
:103E200080938100411451046104710449F42FEF1F
:103E30003FEFA9012CC0411451046104710471F0D9
:103E4000D801AA0FBB1FA30192010E94403228EEA5
:103E500033E040E050E00E94893303C02FEF3FEF92
:103E6000A9018D81813099F0823019F18111E1C071
:103E7000C7BC209368013093690140936A01509355
:103E80006B0180916E00826080936E00D2C0D092F0
:103E90008900C092880020936401309365014093AB
:103EA00066015093670180916F00826080936F007C
:103EB000C0C0C092B30020936F0130937001409353
:103EC0007101509372018091700082608093700044
:103ED000B0C068E478EE81E090E0A50194010E9412
:103EE000AB3369017A0191E0C91AD108E108F10800
:103EF0002FEFC216D104E104F10441F138F164E27C
:103F000074EF80E090E0A50194010E94AB33690159
:103F10007A0181E0C81AD108E108F1089FEFC916BB
:103F2000D104E104F10409F008F441CF62E17AE739
:103F300080E090E0A50194010E94AB3369017A0111
:103F400081E0C81AD108E108F10819C084E030CF37
:103F50002FEFC216D104E104F10409F008F463C0A4
:103F600062E17AE780E090E0A50194010E94AB3322
:103F700069017A0191E0C91AD108E108F1088FEFCF
:103F8000C816D104E104F104A9F0A0F089819A8156
:103F9000AB81BC812AE0B595A795979587952A9521
:103FA000D1F76C017D0121E0C21AD108E108F108C6
:103FB00087E0FECE86E0FCCE82E0FACE8FEFC81618
:103FC000D104E104F10469F160F162E17AE780E093
:103FD00090E0A50194010E94AB3369017A0191E060
:103FE000C91AD108E108F1082FEFC216D104E10483
:103FF000F104A9F0A0F089819A81AB81BC813AE0FB
:10400000B595A795979587953A95D1F76C017D0160
:1040100021E0C21AD108E108F10885E0C3CE84E0AE
:10402000C1CE83E0BFCE84E0BACE61E00E943C27DF
:1040300047CE0F900F900F900F900F90DF91CF9180
:104040001F910F91FF90EF90DF90CF90BF90AF90B6
:104050009F908F907F906F905F904F9008951F92E8
:104060000F920FB60F9211242F933F934F935F93AC
:104070006F937F938F939F93AF93BF93EF93FF9330
:1040800081EE92E00E94FC19FF91EF91BF91AF91F8
:104090009F918F917F916F915F914F913F912F9160
:1040A0000F900FBE0F901F9018951F920F920FB692
:1040B0000F9211242F938F939F93EF93FF93E0918F
:1040C000F102F091F2028081E091F702F091F802A2
:1040D00082FD12C090818091FA028F5F8F732091D0
:1040E000FB02821751F0E091FA02F0E0EF51FD4F30
:1040F000958F8093FA0201C08081FF91EF919F918B
:104100008F912F910F900FBE0F901F901895FC016B
:104110004085518582859385481759072CF524855C
:10412000358584819581280F391F358724876685D9
:10413000778586819781860F971F978786871816C0
:10414000190664F460817181260F371F3587248733
:1041500022813381821B930B978786874F5F5F4F46
:104160005187408781E0089580E00895DB01ED915B
:10417000FC91099490916101911102C080936101B9
:1041800008951F93CF93DF9300D0CDB7DEB720ED16
:1041900037E03A8329839091BC00982399F42981D0
:1041A0003A81232B51F480919902182F127081FDCE
:1041B00009C081E00E94BA2006C029813A812150BD
:1041C0003109E7CF11E0812F0F900F90DF91CF9150
:1041D0001F91089584E98093BC0064E080E10C9411
:1041E000C120CF938093BB0084E88093BC0063E040
:1041F00080E80E94C120C82F882389F0809199020D
:10420000C82FC27081FD0AC08091B900887F8832B2
:1042100029F063E082E00E94BA2001C0C1E08C2F47
:10422000CF910895CF93DF93FC0123A5222379F04A
:10423000EC010E94AD26811102C080E009C08EA170
:10424000811180E40E94F1208823B9F31BA681E04C
:10425000DF91CF9108950F931F93CF93C42F8901BE
:104260006330C1F050F4613081F0623009F048C031
:10427000FC0146A321E023A743C0663011F167305B
:1042800079F1653009F03CC00EC0FC0186A50E94A2
:104290002C1B36C0FC0116A221E023A7411130C01F
:1042A0000E94EA202DC00E941221811104C00E94A8
:1042B000EA2080E026C08C2F0E94F120811120C0CE
:1042C000F6CF0E941221882391F3CC23C9F0F80184
:1042D00081918F010E94F120882349F3C150F5CFCD
:1042E0000E941221882319F3CC2351F0F801849104
:1042F0000E94F120882329F00F5F1F4FC150F4CF97
:1043000081E0CF911F910F9108950F93FC0101500F
:10431000040F84A996A9941718F0081728F402C06E
:10432000081750F0041740F42150260F83A995A9CF
:10433000961720F4281720F480E007C0281720F4EF
:1043400081E0261710F0F8CF81E00F9108955F9279
:104350006F927F928F929F92AF92BF92CF92DF9295
:10436000EF92FF920F931F93CF93DF93EC01062FF1
:10437000142FC22EEC80FD80C7010E94001BD82E96
:104380008C819D810E94031B982E21E0D21203C0D4
:104390002FE0A22E02C0AA24AA948C819D810E94A3
:1043A000FC1AD82E8C819D810E94F81AB82E8C811F
:1043B0009D810E94191BE0E6EC1538F4009729F066
:1043C000E80EF91E91E6D92E11C08C819D810E94C4
:1043D0001C1BF0E4FC1538F4009729F0E80EF91ED8
:1043E00081E4D82E03C021E1E20EF11CBC1430F4AC
:1043F000188A1B8A1C8A198A1A8A9AC0BD14C0F3AB
:10440000892D90E0F70124912F3F21F4FFEFEF1A5F
:10441000FF0A40C0CD1035C08C819D810E94001BD9
:1044200097012F5F3F4FF701882311F0823091F4FD
:1044300084918B8BF90124912C8BF7013396E491B5
:10444000E88BF7013496E491E98BF7013596E49116
:10445000EA8B25C08491982F9F7092509A8B8295F9
:104460008F70898BF9012491822F8F708C8B22950C
:104470002F702B8BF7013296E491E295EF70E88B69
:104480000EC0F7013296E491EA219C012E0F311DF6
:10449000E20EF31EBD1409F4ABCFD394B3CFE114F5
:1044A000F10409F445C08C819D810E94031BA82E54
:1044B000DB88BC88C988C00E8A898B0D181B0B2D20
:1044C0002D2D412F6C2DCE010E948521882371F165
:1044D000EA0CF11C87E08D0DD82ED694D694D69494
:1044E0005B2C510E4E01FCE18F0E911C6D2C712C3A
:1044F0005116E1F00C2D57018A2D8E198D1590F46F
:10450000F50184916A817B810C8F1D8F1F8E8E8FA8
:1045100094014BE3CE010E94B620FFEFAF1ABF0A11
:10452000085FEACFE60CF71C1F5FE2CF888901C065
:1045300080E0DF91CF911F910F91FF90EF90DF907E
:10454000CF90BF90AF909F908F907F906F905F9033
:104550000895DF92EF92FF920F931F93CF93DF9313
:10456000EC01D62E1CAD0BAD7C0184E0E80EF11CF5
:10457000E98DFA8DC7010995412F480F2D2D602F28
:10458000C7010E94A7219BAD890F8BAF81E090E00E
:10459000DF91CF911F910F91FF90EF90DF900895E1
:1045A000EF92FF921F93CF93DF932FEF260F2031CF
:1045B00060F5162F7C0160E0FC0181810E940D27CF
:1045C000F7018081880F81640E94E91C82E10E94CA
:1045D000E91C80E00E94E91CC82FD0E080E00E9426
:1045E000E91CD82B61E0F70181810E940D276FEF54
:1045F000610F81E090E002C0880F991F6A95E2F791
:10460000C823D92381E0CD2B09F480E0DF91CF913D
:104610001F91FF90EF900895FF920F931F93CF93F8
:10462000DF93EC01F62E8A0160E089810E940D275C
:104630008881880F80640E94E91C8F2D0E94E91CEC
:10464000802F0E94E91C812F0E94E91C61E0898172
:10465000DF91CF911F910F91FF900C940D272FEFB9
:10466000260F203178F570E0DC011896ED91FC9171
:10467000199761507109442379F041E050E002C07C
:10468000440F551F6A95E2F79F01242B352B19968D
:104690003C932E9318970EC021E030E002C0220F09
:1046A000331F6A95E2F7209530952E233F23FC01B6
:1046B00031872087DC0118964D915C91199762E152
:1046C0000C940C2308952FEF260F203178F570E01D
:1046D000DC011296ED91FC91139761507109411123
:1046E0000FC041E050E002C0440F551F6A95E2F749
:1046F0009F01242B352B13963C932E9312970EC0BB
:1047000021E030E002C0220F331F6A95E2F72095C6
:1047100030952E233F23FC0133832283DC01129644
:104720004D915C91139760E00C940C2308951F93B6
:10473000CF93DF93EC0161E089810E943C2761E027
:1047400089810E940D271FB7F89480916001811123
:1047500027C0E9E8F2E38491EDE9F2E39491E82FD0
:10476000F0E0EE0FFF1FE559FD4CA591B491EC91DF
:10477000E92321F461E08AE00E940D2761E08AE0EC
:104780000E943C278CB580618CBD8CB580648CBD4B
:1047900061E08DE00E943C2761E08BE00E943C27B5
:1047A000809160018F5F809360011FBF60E089810D
:1047B0000E940D278881880F80640E94E91C8AE08E
:1047C0000E94E91C88E00E94E91C61E08981DF9178
:1047D000CF911F910C940D27CF92DF92EF92FF9211
:1047E0000F931F93CF93DF93C4E1D0E0C12CD12C62
:1047F000760184E10E9478278C0164E170E080E01A
:1048000090E00E948F27B801110F880B990B0E942E
:1048100064319B01AC01C701B6010E9492326B0169
:104820007C01219731F720E030E144EA55E40E9411
:10483000FE326093730170937401809375019093BD
:10484000760120917801222371F124EA30E74DE4CA
:1048500050E40E945D3187FF26C0C4E6D0E00E948C
:10486000142985EB90E00E94702943E351E066E251
:1048700084E00E9447290E9447268111F2CF60E21E
:1048800073E080E090E00E948F270E9414290E942C
:1048900047268111FCCF60E273E080E090E00E9447
:1048A0008F272197E1F6DF91CF911F910F91FF9014
:1048B000EF90DF90CF9008950F931F930E942926C9
:1048C00028E043E06AE080E50E94F02880917701CB
:1048D0008823C1F00FE010E026E430E049E050E02A
:1048E00062E470E086E390E00E94322504E110E08B
:1048F00022E430E04FE050E06DE470E080E490E0CE
:104900000E9432258091770181115AC024EA30E754
:104910004DE450E4609173017091740180917501D0
:10492000909176010E94703387FD06C02BE044E031
:1049300069E086E30E94F0282CE53FE842E650E477
:10494000609173017091740180917501909176016D
:104950000E94703387FD06C02BE044E069E08CE3E1
:104960000E94F0282DEC3CEC4CE650E46091730181
:104970007091740180917501909176010E9470335D
:1049800087FD06C02BE044E069E082E40E94F02845
:1049900021EE3AE744E750E46091730170917401AD
:1049A00080917501909176010E94703387FD08C057
:1049B0002BE044E069E088E41F910F910C94F0280B
:1049C0001F910F9108953FB7F89480919B029091A9
:1049D0009C02A0919D02B0919E0226B5A89B05C0A5
:1049E0002F3F19F00196A11DB11D3FBFBA2FA92F6E
:1049F000982F8827820F911DA11DB11DBC01CD01EB
:104A000042E0660F771F881F991F4A95D1F70895D6
:104A10000F931F93CF93DF93082FC0E8D3E06E81ED
:104A20007F8188A387E089A311E01BA38FEF8AA36E
:104A300020EA33E04BE384E893E00E94B6206E81E5
:104A40007F8108A38FE089A31BA38EEF8AA320EAAE
:104A500033E04BE384E893E0DF91CF911F910F9116
:104A60000C94B6200F931F93CF93DF939093A002E3
:104A700080939F028FE090E09093A2028093A10226
:104A80007093A4026093A3025093A6024093A502E0
:104A90003093A8022093A7021093AA020093A902C0
:104AA00083E08093B70281EA9AE19093DF028093DA
:104AB000DE0288E99AE19093CC028093CB024031E8
:104AC00051054CF481E04F30510509F480E0EA01D2
:104AD0004FE050E003C080E0CFE0D0E04017510746
:104AE00044F00C171D0714F08A0103C0E8018A0185
:104AF00082E08093CD020C1B1D0B1093BA02009331
:104B0000B902012B09F4A0C08093E00261E0CE015C
:104B10000E943C2A60E0CE010E943C2A81E0809302
:104B2000B802A091CD0284E0A89FD0011124A15623
:104B3000BD4FE091E00284E0E89FF0011124E156CE
:104B4000FD4F2D913C91808191812817390719F0F3
:104B50001092B8020CC08091B9029091BA020197EC
:104B60009093BA028093B902892B09F46DC0C09169
:104B7000B902D091BA0280E00E94BD2981E00E9472
:104B8000BD298091B802882341F08BEB92E00E940E
:104B900087208EEC92E00E9487206091D60270916F
:104BA000D70277FD38C08091850390E068177907B8
:104BB00094F52091C7023091C8028091DA02909159
:104BC000DB0228173907A4F497FD25C04091840320
:104BD00050E024173507FCF437FF02C020E030E036
:104BE000481759070CF4CA01482F421B822F11C0E5
:104BF00037FD11C04091840350E0841795075CF4A1
:104C000097FF02C020E030E0241735070CF4A9011B
:104C1000481B0E941D2A8BEB92E00E948720811185
:104C200004C080E00E94BD29F6CF8EEC92E00E9485
:104C30008720811104C081E00E94BD29F6CF219711
:104C40001C161D060CF4A9CFDF91CF911F910F9177
:104C500008950F930FE02CE147E064E384E893E0CC
:104C60000E948521882389F04CE167E084E30E945B
:104C70007A2884E30E9408258FE40E9408254CE1ED
:104C800065E184E30F910C947A280F9108950F93B6
:104C90001F93CF93E0919203F0919303309719F013
:104CA00084E893E009950091860310918703E091D1
:104CB000B503F091B60382E00995E091B503F09158
:104CC000B60381E0099520E030E045E1B80184E8D1
:104CD00093E00E94B620C82F882341F027EB33E0F1
:104CE00047E1B80184E893E00E94B620E091B50363
:104CF000F091B60380E009958C2FCF911F910F9111
:104D000008952FEF260F203188F441E050E002C0D3
:104D1000440F551F2A95E2F7FC0126813781422B6B
:104D2000532B5783468362E00C940C2308952FEF96
:104D3000260F203188F441E050E002C0440F551F97
:104D40002A95E2F7FC0124813581422B532B5583B0
:104D500044836CE00C940C230895CF9384EA8093F1
:104D6000BC0061E080E80E94C120882359F0809156
:104D7000B900887F883041F0803131F061E082E015
:104D80000E94BA20C0E01DC088E78093BB0084E881
:104D90008093BC0062E080E80E94C120882391F3E8
:104DA00080919902C82FC27081FD0AC08091B9001C
:104DB000887F883129F062E082E00E94BA2001C039
:104DC000C1E08C2FCF910895833081F028F4813099
:104DD00099F08230A1F008958730A9F08830B9F0B9
:104DE0008430D1F4809180008F7D03C08091800059
:104DF0008F7780938000089584B58F7702C084B543
:104E00008F7D84BD08958091B0008F7703C080911D
:104E1000B0008F7D8093B00008951F93CF93DF93F0
:104E2000282F30E0F901E955FD4C8491F901ED5648
:104E3000FD4CD491F901E158FD4CC491CC23C1F053
:104E4000162F81110E94E426EC2FF0E0EE0FFF1FD9
:104E5000EB58FD4CA591B4919FB7F894111104C083
:104E60008C91D095D82302C0EC91DE2BDC939FBFB0
:104E7000DF91CF911F910895CF93DF9390E0FC01D4
:104E8000ED56FD4C2491FC01E158FD4C84918823A2
:104E900061F190E0880F991FFC01E559FD4CC59127
:104EA000D491FC01EB58FD4CA591B491611109C05E
:104EB0009FB7F8948881209582238883EC912E23D4
:104EC0000BC0623061F49FB7F8948881322F30951F
:104ED00083238883EC912E2B2C939FBF06C08FB722
:104EE000F894E8812E2B28838FBFDF91CF9108950E
:104EF0008E3008F08E508770806480937C008091A3
:104F00007A00806480937A0080917A0086FDFCCFDD
:104F1000809178002091790090E0922B08958F92F3
:104F20009F92AF92BF92CF92DF92EF92FF926B016E
:104F30007C010E94E3244B015C01C114D104E10413
:104F4000F104F1F00E94E324DC01CB0188199909F6
:104F5000AA09BB09883E9340A105B10570F321E081
:104F6000C21AD108E108F10888EE880E83E0981E85
:104F7000A11CB11CC114D104E104F10419F7DDCF67
:104F8000FF90EF90DF90CF90BF90AF909F908F9069
:104F900008951F920F920FB60F9211242F933F93F3
:104FA0008F939F93AF93BF938091950290919602B8
:104FB000A0919702B091980230919A0223E0230FBA
:104FC0002D3720F40196A11DB11D05C026E8230F41
:104FD0000296A11DB11D20939A0280939502909391
:104FE0009602A0939702B093980280919B029091B1
:104FF0009C02A0919D02B0919E020196A11DB11D3F
:1050000080939B0290939C02A0939D02B0939E027A
:10501000BF91AF919F918F913F912F910F900FBEB4
:105020000F901F9018950F931F93CF93DF931F92AC
:10503000CDB7DEB70091860310918703E091B503E9
:10504000F091B60382E0099520E030E04AE0B80133
:1050500084E893E00E94B620182FE091B503F09108
:10506000B60383E00995E091B503F091B60380E0C3
:1050700009951123C1F160918603709187039E0108
:105080002F5F3F4F46E484E893E00E94B620898179
:105090008093840360918603709187039E012F5F44
:1050A0003F4F47E484E893E00E94B62089818093D3
:1050B0008503609186037091870320E030E048E427
:1050C00084E893E00E94B62080938F03609186036A
:1050D0007091870327EB33E047E184E893E00E9477
:1050E000B62081E001C080E00F90DF91CF911F9149
:1050F0000F910895EF92FF920F931F93CF93DF9339
:10510000D82F062FC42F142FF82EF40EEE24EA9475
:105110008F2D811B1830A8F0609186037091870352
:105120008093A0030093A1031092A303E092A20333
:1051300020EA33E04BE384E893E00E94B620185065
:10514000E7CF8C2F86958695869598E0899FD00D20
:1051500011244C2F98EF899F400D1124442319F1FD
:1051600097E049276091860370918703D093A0034D
:105170000093A1031092A3034F5F47708FEF90E05D
:1051800001C0880F4A95EAF78093A20320EA33E032
:105190004BE384E893E0DF91CF911F910F91FF9053
:1051A000EF900C94B620DF91CF911F910F91FF905B
:1051B000EF9008950F931F93CF93DF93182F042F31
:1051C000C62FD62FD20F402F6C2F812F0E947A2806
:1051D000CF5FCD13F8CFDF91CF911F910F9108953D
:1051E000FF920F931F93CF93DF93C82FD62F142FC7
:1051F000F22E022F242F462F682F84E893E00E947E
:105200008521882359F02F2D412F6D2F8C2FDF9171
:10521000CF911F910F91FF900C94DA28DF91CF91DD
:105220001F910F91FF900895CF93DF938091BD035D
:10523000811105C081E08093BD030E941328C091B5
:105240008603D0918703E091B503F091B60382E025
:105250000995E091B503F091B60381E0099520E04E
:1052600030E044E1BE0184E893E00E94B62027EBE1
:1052700033E047E1BE0184E893E00E94B620E0916C
:10528000B503F091B60380E0DF91CF910994EF92DE
:10529000FF920F931F93CF93DF93F82E062FE42EE8
:1052A000152FE0919903F0919A0384E893E0099512
:1052B000080FCE2DD12F10E02991222349F0402F45
:1052C0006F2D84E893E00E94A721F80E180FF4CF09
:1052D000812FDF91CF911F910F91FF90EF90089553
:1052E00020918803309189032817390709F444C0B5
:1052F0009093890380938803009709F437C0209125
:105300009B03FC01211107C03596E491E0939C03B7
:10531000FC013C960FC0213039F43F96E491E093B4
:105320009C03FC01709606C03D96E491E0939C03BB
:10533000FC013E96849180939D0380919C03082EEE
:10534000000C990B20919D03821B910927FD9395D9
:1053500020919E03203441F0829FC001112426E059
:10536000969587952A95E1F780939F0386EF9AE1BA
:1053700090939A03809399030895EF92FF920F936D
:105380001F93CF93DF9323E1829FC0011124EC018F
:10539000C554DD4F6A8984E0689FF0011124E1560D
:1053A000FD4FE280F38000811181E889F9898FE95E
:1053B00092E0099594E0899FF0011124E156FD4F98
:1053C00042815381208131818A8BC901801B910BDD
:1053D0009A012E193F093B832A835B874A87F98606
:1053E000E8861D870C8797FD08C041E050E059838F
:1053F00048831F861E86FC010EC04FEF5FEF598366
:105400004883EE27FF27E81BF90B41E050E0421BE1
:10541000530B5F874E87B9010E9475337D836C8380
:10542000CF01B9010E9475339F838E83DF91CF91A5
:105430001F910F91FF90EF9008950F931F93CF93BB
:10544000DF93C82FD62F142F01E0242F462F682F6B
:1054500084E893E00E948521882349F0412F6D2F35
:105460008C2FDF91CF911F910F910C947A28DF91AF
:10547000CF911F910F910895EF92FF920F931F9379
:10548000CF93DF938C0183E1689FF0011124E156F3
:10549000FD4F86A57F019CE2E90EF11CEF01AE965F
:1054A000D701ED91FC91682F8FE992E00995B4E066
:1054B0008B9FF0011124E156FD4F2281338120178B
:1054C000310711F48883ECCFDF91CF911F910F91B9
:1054D000FF90EF9008958091E6039091E7030C947C
:1054E0007C34CF93DF93CDB7DEB7AB970FB6F8948C
:1054F000DEBF0FBECDBF789484B5826084BD84B515
:10550000816084BD85B5826085BD85B5816085BDBE
:1055100080916E00816080936E0010928100809176
:1055200081008260809381008091810081608093FE
:105530008100809180008160809380008091B10023
:1055400084608093B1008091B00081608093B0004E
:1055500080917A00846080937A0080917A008260E2
:1055600080937A0080917A00816080937A008091A4
:105570007A00806880937A001092C1008CED93E0ED
:105580000E94972382ED93E00E94972388EC93E09A
:105590000E9497238EEB93E00E94972311E041E055
:1055A000612F8CED93E00E946323612F8CED93E0DB
:1055B0000E949726612F8CED93E00E94812641E0A6
:1055C000612F82ED93E00E946323612F82ED93E0CF
:1055D0000E949726612F82ED93E00E94812641E090
:1055E000612F88EC93E00E946323612F88EC93E0A5
:1055F0000E949726612F88EC93E00E94812641E06B
:10560000612F8EEB93E00E946323612F8EEB93E07A
:105610000E949726612F8EEB93E00E9481261F5FE8
:10562000113109F0BCCF81E08093A40385EB90E0B9
:105630000E94702961E086E00E943C2761E085E0DD
:105640000E943C2761E083E00E943C2761E084E007
:105650000E943C2762E082E00E943C2761E085E0F6
:105660000E940D27E091F102F091F20282E0808326
:10567000E091ED02F091EE021082E091EF02F091E4
:10568000F0028FEC80831092F902E091F502F09124
:10569000F60286E08083E091F302F091F4028081CB
:1056A00080618083E091F302F091F4028081886050
:1056B0008083E091F302F091F4028081806880831E
:1056C000E091F302F091F40280818F7D80830E944B
:1056D000142985EB90E00E9470294CE351E06AE2C6
:1056E00088E10E9447290E9447268111F2CF60ED90
:1056F00077E080E090E00E948F270E94142985EBDC
:1057000090E00E94702942E451E06AE286E10E9442
:1057100047290E9447268111F2CF68EE73E080E0AE
:1057200090E00E948F270E9414290E944726811131
:10573000FCCF2FB7F8948091950290919602A0919A
:105740009702B09198022FBF80939102909392029A
:10575000A0939302B0939402109278011092770173
:105760000E94EC2360E085E00E940D2761E083E069
:105770000E940D272DEC3CEC4CE450E46091730149
:105780007091740180917501909176010E9470333F
:1057900087FD03C081E0809378018EED90E00E9448
:1057A0002C3260937D0170937E0180937F019093F2
:1057B000800188248394912C82E0282E312C8091C2
:1057C0007801882389F12FB7F89480919502909100
:1057D0009602A0919702B09198022FBF409191023A
:1057E000509192026091930270919402841B950BE8
:1057F000A60BB70B813E9349A440B105ACF00E94C3
:10580000EC232FB7F8948091950290919602A09185
:105810009702B09198022FBF8093910290939202C9
:10582000A0939302B09394028FE00E947827BC016A
:10583000990F880B990B0E94643120E030E445E316
:1058400054E40E94703387FD04C081E080937701A7
:1058500002C01092770110928D0210928E02109267
:105860008F021092900290928C0280928B02E090B4
:105870008B02F0908C0245E0E416F1040CF044C277
:1058800090928A0280928902270181E0481A510889
:1058900014E0440C551C1A95E1F70091890210910F
:1058A0008A02013111050CF027C25801A40CB51C65
:1058B000B0928802A092870291E0E916F10459F4AF
:1058C00040E0602F8CED93E00E94632340E0602F66
:1058D0008CED93E02CC0E2E0EE16F10459F440E0C8
:1058E000602F82ED93E00E94632340E0602F82ED01
:1058F00093E01DC0F3E0EF16F10459F440E0602F8F
:1059000088EC93E00E94632340E0602F88EC93E0F2
:105910000EC024E0E216F10461F440E0602F8EEB4B
:1059200093E00E94632340E0602F8EEB93E00E949F
:105930002F23602F8CED93E00E94D022813009F05C
:1059400057C090927C0180927B0190927A01809264
:105950007901350140E4640E711CB6E0660C771CD9
:10596000BA95E1F7C0907901D0907A0181E1C8162B
:10597000D104F4F540E06C2D8CED93E00E9463239C
:1059800040E06C2D8CED93E00E942F236C2D8CED6C
:1059900093E00E94D0228130E9F4F601EE0FFF1F60
:1059A000EE0FFF1FEF57FE4F2DE02C9DC0012D9DE8
:1059B000900D1124860D971D092E000CAA0BBB0B10
:1059C00080839183A283B38341E06C2D8CED93E0BF
:1059D0000E942F2341E06C2D8CED93E00E94632305
:1059E0004FEFC41AD40AD0927A01C0927901BACF8B
:1059F000602F82ED93E00E94D022813009F057C0E1
:105A000030927C0120927B0190927A018092790100
:105A100089E08A9D30018B9D700C1124C090790122
:105A2000D0907A0191E1C916D1040CF040C040E059
:105A30006C2D82ED93E00E94632340E06C2D82ED9B
:105A400093E00E942F236C2D82ED93E00E94D022E0
:105A50008130F9F4F601EE0FFF1FEE0FFF1FEF5339
:105A6000FE4FC601805B9F4F9695982F882797958C
:105A70008795860D971D092E000CAA0BBB0B808302
:105A80009183A283B38341E06C2D82ED93E00E9469
:105A90002F2341E06C2D82ED93E00E946323EFEF12
:105AA000CE1ADE0AD0927A01C0927901B7CF602F68
:105AB00088EC93E00E94D022813009F054C083E04A
:105AC00090E090937C0180937B0190927A01809288
:105AD000790135019CE3690E711C55E0660C771C59
